{
    "contractName": "MOFService",
    "abi": [
        {
            "constant": true,
            "inputs": [],
            "name": "name",
            "outputs": [
                {
                    "name": "",
                    "type": "string"
                }
            ],
            "payable": false,
            "stateMutability": "view",
            "type": "function"
        },
        {
            "constant": true,
            "inputs": [
                {
                    "name": "",
                    "type": "bytes32"
                }
            ],
            "name": "services",
            "outputs": [
                {
                    "name": "",
                    "type": "address"
                }
            ],
            "payable": false,
            "stateMutability": "view",
            "type": "function"
        },
        {
            "constant": true,
            "inputs": [
                {
                    "name": "",
                    "type": "address"
                }
            ],
            "name": "balances",
            "outputs": [
                {
                    "name": "",
                    "type": "uint256"
                }
            ],
            "payable": false,
            "stateMutability": "view",
            "type": "function"
        },
        {
            "constant": true,
            "inputs": [],
            "name": "decimals",
            "outputs": [
                {
                    "name": "",
                    "type": "uint8"
                }
            ],
            "payable": false,
            "stateMutability": "view",
            "type": "function"
        },
        {
            "constant": true,
            "inputs": [
                {
                    "name": "",
                    "type": "address"
                },
                {
                    "name": "",
                    "type": "address"
                }
            ],
            "name": "allowed",
            "outputs": [
                {
                    "name": "",
                    "type": "uint256"
                }
            ],
            "payable": false,
            "stateMutability": "view",
            "type": "function"
        },
        {
            "constant": true,
            "inputs": [],
            "name": "symbol",
            "outputs": [
                {
                    "name": "",
                    "type": "string"
                }
            ],
            "payable": false,
            "stateMutability": "view",
            "type": "function"
        },
        {
            "constant": true,
            "inputs": [],
            "name": "mofAddress",
            "outputs": [
                {
                    "name": "",
                    "type": "address"
                }
            ],
            "payable": false,
            "stateMutability": "view",
            "type": "function"
        },
        {
            "inputs": [],
            "payable": false,
            "stateMutability": "nonpayable",
            "type": "constructor"
        },
        {
            "anonymous": false,
            "inputs": [
                {
                    "indexed": true,
                    "name": "_from",
                    "type": "address"
                },
                {
                    "indexed": true,
                    "name": "_to",
                    "type": "address"
                },
                {
                    "indexed": false,
                    "name": "_value",
                    "type": "uint256"
                }
            ],
            "name": "Transfer",
            "type": "event"
        },
        {
            "anonymous": false,
            "inputs": [
                {
                    "indexed": true,
                    "name": "_owner",
                    "type": "address"
                },
                {
                    "indexed": true,
                    "name": "_spender",
                    "type": "address"
                },
                {
                    "indexed": false,
                    "name": "_value",
                    "type": "uint256"
                }
            ],
            "name": "Approval",
            "type": "event"
        },
        {
            "constant": false,
            "inputs": [
                {
                    "name": "accounts",
                    "type": "address[10]"
                }
            ],
            "name": "registerAuthorisedAccounts",
            "outputs": [],
            "payable": false,
            "stateMutability": "nonpayable",
            "type": "function"
        },
        {
            "constant": false,
            "inputs": [
                {
                    "name": "account",
                    "type": "address"
                }
            ],
            "name": "registerAuthorisedAccount",
            "outputs": [],
            "payable": false,
            "stateMutability": "nonpayable",
            "type": "function"
        },
        {
            "constant": false,
            "inputs": [
                {
                    "name": "account",
                    "type": "address"
                }
            ],
            "name": "unauthorise",
            "outputs": [],
            "payable": false,
            "stateMutability": "nonpayable",
            "type": "function"
        },
        {
            "constant": false,
            "inputs": [
                {
                    "name": "add",
                    "type": "address"
                },
                {
                    "name": "n",
                    "type": "bytes32"
                }
            ],
            "name": "registerService",
            "outputs": [],
            "payable": false,
            "stateMutability": "nonpayable",
            "type": "function"
        },
        {
            "constant": false,
            "inputs": [
                {
                    "name": "user",
                    "type": "address"
                },
                {
                    "name": "amount",
                    "type": "uint256"
                }
            ],
            "name": "mintForUser",
            "outputs": [],
            "payable": false,
            "stateMutability": "nonpayable",
            "type": "function"
        },
        {
            "constant": true,
            "inputs": [
                {
                    "name": "n",
                    "type": "bytes32"
                }
            ],
            "name": "getServiceAddress",
            "outputs": [
                {
                    "name": "",
                    "type": "address"
                }
            ],
            "payable": false,
            "stateMutability": "view",
            "type": "function"
        },
        {
            "constant": false,
            "inputs": [
                {
                    "name": "n",
                    "type": "bytes32"
                },
                {
                    "name": "amount",
                    "type": "uint16"
                }
            ],
            "name": "payService",
            "outputs": [],
            "payable": false,
            "stateMutability": "nonpayable",
            "type": "function"
        },
        {
            "constant": false,
            "inputs": [
                {
                    "name": "_to",
                    "type": "address"
                },
                {
                    "name": "_value",
                    "type": "uint256"
                }
            ],
            "name": "transfer",
            "outputs": [
                {
                    "name": "success",
                    "type": "bool"
                }
            ],
            "payable": false,
            "stateMutability": "nonpayable",
            "type": "function"
        },
        {
            "constant": false,
            "inputs": [
                {
                    "name": "_from",
                    "type": "address"
                },
                {
                    "name": "_to",
                    "type": "address"
                },
                {
                    "name": "_value",
                    "type": "uint256"
                }
            ],
            "name": "transferFrom",
            "outputs": [
                {
                    "name": "success",
                    "type": "bool"
                }
            ],
            "payable": false,
            "stateMutability": "nonpayable",
            "type": "function"
        },
        {
            "constant": true,
            "inputs": [
                {
                    "name": "_owner",
                    "type": "address"
                }
            ],
            "name": "balanceOf",
            "outputs": [
                {
                    "name": "balance",
                    "type": "uint256"
                }
            ],
            "payable": false,
            "stateMutability": "view",
            "type": "function"
        },
        {
            "constant": false,
            "inputs": [
                {
                    "name": "_spender",
                    "type": "address"
                },
                {
                    "name": "_value",
                    "type": "uint256"
                }
            ],
            "name": "approve",
            "outputs": [
                {
                    "name": "success",
                    "type": "bool"
                }
            ],
            "payable": false,
            "stateMutability": "nonpayable",
            "type": "function"
        },
        {
            "constant": true,
            "inputs": [
                {
                    "name": "_owner",
                    "type": "address"
                },
                {
                    "name": "_spender",
                    "type": "address"
                }
            ],
            "name": "allowance",
            "outputs": [
                {
                    "name": "remaining",
                    "type": "uint256"
                }
            ],
            "payable": false,
            "stateMutability": "view",
            "type": "function"
        }
    ],
    "bytecode": "0x608060405234801561001057600080fd5b5060008054600160a060020a031916321790556040805180820190915260158082527f4d4f4620496e7465726e616c2043757272656e637900000000000000000000006020909201918252610067916003916100bf565b506040805180820190915260038082527f4d4f46000000000000000000000000000000000000000000000000000000000060209092019182526100ac916005916100bf565b506004805460ff1916600217905561015a565b828054600181600116156101000203166002900490600052602060002090601f016020900481019282601f1061010057805160ff191683800117855561012d565b8280016001018555821561012d579182015b8281111561012d578251825591602001919060010190610112565b5061013992915061013d565b5090565b61015791905b808211156101395760008155600101610143565b90565b610acb806101696000396000f3006080604052600436106101065763ffffffff7c010000000000000000000000000000000000000000000000000000000060003504166306fdde03811461010b578063095ea7b3146101955780630a043729146101cd5780630a790eb7146101f057806323b872dd1461022457806327e235e31461024e578063313ce5671461028157806343b1128b146102ac5780634df3621b146102d05780635c658165146102ef57806370a082311461031657806380833d781461033757806395d89b4114610358578063a9059cbb1461036d578063c2527b3214610391578063d0dbc833146103a9578063dd62ed3e146103cd578063dfe8da68146103f4578063ec8b817e14610409575b600080fd5b34801561011757600080fd5b5061012061044e565b6040805160208082528351818301528351919283929083019185019080838360005b8381101561015a578181015183820152602001610142565b50505050905090810190601f1680156101875780820380516001836020036101000a031916815260200191505b509250505060405180910390f35b3480156101a157600080fd5b506101b9600160a060020a03600435166024356104dc565b604080519115158252519081900360200190f35b3480156101d957600080fd5b506101ee600160a060020a0360043516610542565b005b3480156101fc57600080fd5b5061020860043561057d565b60408051600160a060020a039092168252519081900360200190f35b34801561023057600080fd5b506101b9600160a060020a0360043581169060243516604435610598565b34801561025a57600080fd5b5061026f600160a060020a036004351661069c565b60408051918252519081900360200190f35b34801561028d57600080fd5b506102966106ae565b6040805160ff9092168252519081900360200190f35b3480156102b857600080fd5b506101ee600160a060020a03600435166024356106b7565b3480156102dc57600080fd5b506101ee60043561ffff60243516610710565b3480156102fb57600080fd5b5061026f600160a060020a03600435811690602435166107da565b34801561032257600080fd5b5061026f600160a060020a03600435166107f7565b34801561034357600080fd5b506101ee600160a060020a0360043516610812565b34801561036457600080fd5b5061012061084a565b34801561037957600080fd5b506101b9600160a060020a03600435166024356108a5565b34801561039d57600080fd5b5061020860043561092f565b3480156103b557600080fd5b506101ee600160a060020a036004351660243561094a565b3480156103d957600080fd5b5061026f600160a060020a0360043581169060243516610979565b34801561040057600080fd5b506102086109a4565b34801561041557600080fd5b50604080516101408181019092526101ee91369160049161014491908390600a908390839080828437509396506109b395505050505050565b6003805460408051602060026001851615610100026000190190941693909304601f810184900484028201840190925281815292918301828280156104d45780601f106104a9576101008083540402835291602001916104d4565b820191906000526020600020905b8154815290600101906020018083116104b757829003601f168201915b505050505081565b336000818152600260209081526040808320600160a060020a038716808552908352818420869055815186815291519394909390927f8c5be1e5ebec7d5bd14f71427d1e84f3dd0314c0f7b2291e5b200ac8c7c3b925928290030190a350600192915050565b600054600160a060020a0316331461055957600080fd5b600160a060020a03166000908152600760205260409020805460ff19166001179055565b600660205260009081526040902054600160a060020a031681565b600160a060020a0383166000818152600260209081526040808320338452825280832054938352600190915281205490919083118015906105d95750828110155b15156105e457600080fd5b600160a060020a038085166000908152600160205260408082208054870190559187168152208054849003905560001981101561064657600160a060020a03851660009081526002602090815260408083203384529091529020805484900390555b83600160a060020a031685600160a060020a03167fddf252ad1be2c89b69c2b068fc378daa952ba7f163c4a11628f55a4df523b3ef856040518082815260200191505060405180910390a3506001949350505050565b60016020526000908152604090205481565b60045460ff1681565b3360009081526007602052604090205460ff1615156106d557600080fd5b6000908152600660205260409020805473ffffffffffffffffffffffffffffffffffffffff1916600160a060020a0392909216919091179055565b3360009081526001602052604090205461ffff8216111561073057600080fd5b600082815260066020526040812054600160a060020a03161161075257600080fd5b336000818152600160208181526040808420805461ffff88169081900390915587855260068084528286208054600160a060020a039081168852958552838720805484019055958990528352935481519485529051921693927fddf252ad1be2c89b69c2b068fc378daa952ba7f163c4a11628f55a4df523b3ef929081900390910190a35050565b600260209081526000928352604080842090915290825290205481565b600160a060020a031660009081526001602052604090205490565b600054600160a060020a0316331461082957600080fd5b600160a060020a03166000908152600760205260409020805460ff19169055565b6005805460408051602060026001851615610100026000190190941693909304601f810184900484028201840190925281815292918301828280156104d45780601f106104a9576101008083540402835291602001916104d4565b336000908152600160205260408120548211156108c157600080fd5b33600081815260016020908152604080832080548790039055600160a060020a03871680845292819020805487019055805186815290519293927fddf252ad1be2c89b69c2b068fc378daa952ba7f163c4a11628f55a4df523b3ef929181900390910190a350600192915050565b600090815260066020526040902054600160a060020a031690565b6000811161095757600080fd5b600160a060020a03909116600090815260016020526040902080549091019055565b600160a060020a03918216600090815260026020908152604080832093909416825291909152205490565b600054600160a060020a031681565b60008054600160a060020a031633146109cb57600080fd5b5060005b60008260ff8316600a81106109e057fe5b6020020151600160a060020a0316141580156109ff5750600a8160ff16105b15610a9b57600760008360ff8416600a8110610a1757fe5b60209081029190910151600160a060020a031682528101919091526040016000205460ff1615610a93576001600760008460ff8516600a8110610a5657fe5b6020020151600160a060020a0316600160a060020a0316815260200190815260200160002060006101000a81548160ff0219169083151502179055505b6001016109cf565b50505600a165627a7a72305820d39f8a64b3af6916956850e2bc0fbb08b4b684f83c767508e4caf18d53cf66a40029",
    "source": "pragma solidity ^0.4.20;\n\n// accounts\n// payments\n// \n\n// This is just a simple example of a coin-like contract.\n// It is not standards compatible and cannot be expected to talk to other\n// coin/token contracts. If you want to create a standards-compliant\n// token, see: https://github.com/ConsenSys/Tokens. Cheers!\n\ncontract MOFService {\n    address public mofAddress;\n\n    \n    uint256 constant private MAX_UINT256 = 2**256 - 1;\n    mapping (address => uint256) public balances;\n    mapping (address => mapping (address => uint256)) public allowed;\n\n\n/*\n    NOTE:\n    The following variables are OPTIONAL vanities. One does not have to include them.\n    They allow one to customise the token contract & in no way influences the core functionality.\n    Some wallets/interfaces might not even bother to look at this information.\n    */\n    string public name;                   //fancy name: eg Simon Bucks\n    uint8 public decimals;                //How many decimals to show.\n    string public symbol;                 //An identifier: eg SBX\n    \n\n    // these are the list of available services\n    mapping (bytes32=>address) public services;\n\n    // accounts that are permitted to print more cash\n    mapping (address=>bool) private authorisedAccounts;\n\n    constructor() public {\n        mofAddress = tx.origin;        \n        name = \"MOF Internal Currency\";\n        symbol = \"MOF\";\n        decimals = 2;\n\n    }\n\n    modifier onlyOwner {\n        require(msg.sender == mofAddress);\n        _;\n    }\n\n    modifier onlyAuthorised {\n        require(authorisedAccounts[msg.sender]);\n        _;\n    }\n\n    // authorised accounts work on behalf of the owner. we don't use owner accounts, only authorised accounts\n    // compromised authorised accounts can be removed by the owner\n    function registerAuthorisedAccounts (address[10] accounts ) public onlyOwner {\n        uint8 idx = 0;\n        while (accounts[idx] != address(0) && idx < 10) {\n            if (authorisedAccounts[accounts[idx]]) {\n                authorisedAccounts[accounts[idx]] = true;\n            }\n            idx ++;\n        } \n    }\n\n    function registerAuthorisedAccount (address account ) public onlyOwner {\n        authorisedAccounts[account] = true;\n    }\n\n    function unauthorise(address account) public onlyOwner {\n        delete authorisedAccounts[account];\n    }\n\n    function registerService(address add, bytes32 n) public onlyAuthorised {\n        services[n] = add;\n    }\n\n    // NOTE: for demo purpose we allow any user to mint\n    // in reality we should limit by only authorised users\n    // problem is; if we do that we need a service running that will\n    // be triggered to mint\n    // we don't have such a service\n    function mintForUser(address user, uint amount) public {\n        require(amount > 0);\n        balances[user] += amount;\n    }\n\n    function getServiceAddress(bytes32 n) public view returns(address) {\n        return services[n];\n    }\n\n    function payService(bytes32 n, uint16 amount) public {\n        require(balances[msg.sender] >= amount);\n        require(services[n] > 0);\n\n        balances[msg.sender] -= amount;\n        balances[services[n]] += amount;\n        emit Transfer(msg.sender, services[n], amount);\n    }\n\n    event Transfer(address indexed _from, address indexed _to, uint256 _value);\n    event Approval(address indexed _owner, address indexed _spender, uint256 _value);\n\n    function transfer(address _to, uint256 _value) public returns (bool success) {\n        require(balances[msg.sender] >= _value);\n        balances[msg.sender] -= _value;\n        balances[_to] += _value;\n        emit Transfer(msg.sender, _to, _value); //solhint-disable-line indent, no-unused-vars\n        return true;\n    }\n\n    function transferFrom(address _from, address _to, uint256 _value) public returns (bool success) {\n        uint256 allowance = allowed[_from][msg.sender];\n        require(balances[_from] >= _value && allowance >= _value);\n        balances[_to] += _value;\n        balances[_from] -= _value;\n        if (allowance < MAX_UINT256) {\n            allowed[_from][msg.sender] -= _value;\n        }\n        emit Transfer(_from, _to, _value); //solhint-disable-line indent, no-unused-vars\n        return true;\n    }\n\n    function balanceOf(address _owner) public view returns (uint256 balance) {\n        return balances[_owner];\n    }\n\n    function approve(address _spender, uint256 _value) public returns (bool success) {\n        allowed[msg.sender][_spender] = _value;\n        emit Approval(msg.sender, _spender, _value); //solhint-disable-line indent, no-unused-vars\n        return true;\n    }\n\n    function allowance(address _owner, address _spender) public view returns (uint256 remaining) {\n        return allowed[_owner][_spender];\n    }\n}",
    "sourcePath": "C:\\dev\\russel-api\\contracts\\MOFService.sol",
    "compiler": {
        "name": "solc",
        "version": "0.4.24+commit.e67f0147.Emscripten.clang"
    },
    "schemaVersion": "2.0.1",
    "updatedAt": "2018-10-23T05:02:10.091Z"
}